{"abi":[{"type":"constructor","inputs":[{"name":"_roleManager","type":"address","internalType":"address"}],"stateMutability":"nonpayable"},{"type":"function","name":"addCollateral","inputs":[{"name":"token","type":"address","internalType":"address"},{"name":"conversionRate","type":"uint256","internalType":"uint256"},{"name":"decimals","type":"uint8","internalType":"uint8"}],"outputs":[],"stateMutability":"nonpayable"},{"type":"function","name":"getCollateralInfo","inputs":[{"name":"token","type":"address","internalType":"address"}],"outputs":[{"name":"conversionRate","type":"uint256","internalType":"uint256"},{"name":"decimals","type":"uint8","internalType":"uint8"},{"name":"isActive","type":"bool","internalType":"bool"}],"stateMutability":"view"},{"type":"function","name":"getSupportedCollaterals","inputs":[],"outputs":[{"name":"","type":"address[]","internalType":"address[]"}],"stateMutability":"view"},{"type":"function","name":"getValueInUnderlying","inputs":[{"name":"token","type":"address","internalType":"address"},{"name":"amount","type":"uint256","internalType":"uint256"}],"outputs":[{"name":"","type":"uint256","internalType":"uint256"}],"stateMutability":"view"},{"type":"function","name":"isSupportedAsset","inputs":[{"name":"token","type":"address","internalType":"address"}],"outputs":[{"name":"","type":"bool","internalType":"bool"}],"stateMutability":"view"},{"type":"function","name":"registry","inputs":[],"outputs":[{"name":"","type":"address","internalType":"address"}],"stateMutability":"view"},{"type":"function","name":"removeCollateral","inputs":[{"name":"token","type":"address","internalType":"address"}],"outputs":[],"stateMutability":"nonpayable"},{"type":"function","name":"roleManager","inputs":[],"outputs":[{"name":"","type":"address","internalType":"contract RoleManager"}],"stateMutability":"view"},{"type":"function","name":"updateConversionRate","inputs":[{"name":"token","type":"address","internalType":"address"},{"name":"newRate","type":"uint256","internalType":"uint256"}],"outputs":[],"stateMutability":"nonpayable"},{"type":"event","name":"CollateralAdded","inputs":[{"name":"token","type":"address","indexed":true,"internalType":"address"},{"name":"conversionRate","type":"uint256","indexed":false,"internalType":"uint256"},{"name":"decimals","type":"uint8","indexed":false,"internalType":"uint8"}],"anonymous":false},{"type":"event","name":"CollateralRemoved","inputs":[{"name":"token","type":"address","indexed":true,"internalType":"address"}],"anonymous":false},{"type":"event","name":"ConversionRateUpdated","inputs":[{"name":"token","type":"address","indexed":true,"internalType":"address"},{"name":"oldRate","type":"uint256","indexed":false,"internalType":"uint256"},{"name":"newRate","type":"uint256","indexed":false,"internalType":"uint256"}],"anonymous":false},{"type":"error","name":"InvalidConversionRate","inputs":[{"name":"rate","type":"uint256","internalType":"uint256"}]},{"type":"error","name":"InvalidDecimals","inputs":[{"name":"decimals","type":"uint8","internalType":"uint8"}]},{"type":"error","name":"InvalidRoleManager","inputs":[]},{"type":"error","name":"TokenAlreadyAdded","inputs":[{"name":"token","type":"address","internalType":"address"}]},{"type":"error","name":"TokenNotSupported","inputs":[{"name":"token","type":"address","internalType":"address"}]},{"type":"error","name":"Unauthorized","inputs":[{"name":"caller","type":"address","internalType":"address"}]},{"type":"error","name":"UnauthorizedRole","inputs":[{"name":"caller","type":"address","internalType":"address"},{"name":"roleRequired","type":"uint256","internalType":"uint256"}]},{"type":"error","name":"ZeroAddress","inputs":[]}],"bytecode":{"object":"0x6080604052348015600e575f80fd5b50604051610f09380380610f09833981016040819052602b916076565b806001600160a01b0381166052576040516309a53a6560e31b815260040160405180910390fd5b5f80546001600160a01b0319166001600160a01b03929092169190911790555060a1565b5f602082840312156085575f80fd5b81516001600160a01b0381168114609a575f80fd5b9392505050565b610e5b806100ae5f395ff3fe608060405234801561000f575f80fd5b506004361061008f575f3560e01c80637b103999116100635780637b103999146101645780639be918e61461016c578063a03b5c04146101b0578063c99d3a06146101c3578063cb04200f146101d6575f80fd5b8062435da51461009357806305db8a69146100c257806333352210146100d75780637903f3f81461014f575b5f80fd5b5f546100a5906001600160a01b031681565b6040516001600160a01b0390911681526020015b60405180910390f35b6100ca6101f7565b6040516100b99190610c30565b6101306100e5366004610c93565b6001600160a01b03165f9081526001602081815260409283902083516060810185528154808252919093015460ff808216938501849052610100909104161515929093018290529192565b6040805193845260ff90921660208401521515908201526060016100b9565b61016261015d366004610cb5565b61037d565b005b6100a5610671565b6101a061017a366004610c93565b6001600160a01b03165f9081526001602081905260409091200154610100900460ff1690565b60405190151581526020016100b9565b6101626101be366004610cf9565b6106ea565b6101626101d1366004610c93565b6108b7565b6101e96101e4366004610cf9565b610aa0565b6040519081526020016100b9565b60605f805b6002548110156102675760015f6002838154811061021c5761021c610d23565b5f9182526020808320909101546001600160a01b0316835282019290925260400190206001015460ff610100909104161561025f578161025b81610d4b565b9250505b6001016101fc565b505f8167ffffffffffffffff81111561028257610282610d63565b6040519080825280602002602001820160405280156102ab578160200160208202803683370190505b5090505f805b6002548110156103745760015f600283815481106102d1576102d1610d23565b5f9182526020808320909101546001600160a01b0316835282019290925260400190206001015460ff610100909104161561036c576002818154811061031957610319610d23565b905f5260205f20015f9054906101000a90046001600160a01b031683838151811061034657610346610d23565b6001600160a01b03909216602092830291909101909101528161036881610d4b565b9250505b6001016102b1565b50909392505050565b5f8054906101000a90046001600160a01b03166001600160a01b03166394658d7e6040518163ffffffff1660e01b8152600401602060405180830381865afa1580156103cb573d5f803e3d5ffd5b505050506040513d601f19601f820116820180604052508101906103ef9190610d77565b5f5460405163145398bf60e21b8152336004820152602481018390526001600160a01b039091169063514e62fc90604401602060405180830381865afa15801561043b573d5f803e3d5ffd5b505050506040513d601f19601f8201168201806040525081019061045f9190610d8e565b61048a5760405163418b5b9d60e11b8152336004820152602481018290526044015b60405180910390fd5b6001600160a01b0384166104b15760405163d92e233d60e01b815260040160405180910390fd5b825f036104d45760405163f10e7e1760e01b815260048101849052602401610481565b60ff821615806104e7575060128260ff16115b1561050a5760405163ca95039160e01b815260ff83166004820152602401610481565b6001600160a01b0384165f9081526001602081905260409091200154610100900460ff1615610557576040516313501a5160e01b81526001600160a01b0385166004820152602401610481565b6040805160608101825284815260ff808516602080840191825260018486018181526001600160a01b038b165f908152828452878120965187559351959091018054915115156101000261ffff19909216958516959095171790935560039092529190205416610624576002805460018082019092557f405787fa12a823e0f2b7631cc41b3ba8828b3321ca811111fa75cd3aa3bb5ace0180546001600160a01b0319166001600160a01b0387169081179091555f908152600360205260409020805460ff191690911790555b6040805184815260ff841660208201526001600160a01b038616917f3fcefb9b19b48d6ec98e880e4f00ea1f85e110afa16ad4d3b533cd22475dd1ac91015b60405180910390a250505050565b5f805f9054906101000a90046001600160a01b03166001600160a01b0316637b1039996040518163ffffffff1660e01b8152600401602060405180830381865afa1580156106c1573d5f803e3d5ffd5b505050506040513d601f19601f820116820180604052508101906106e59190610dad565b905090565b5f8054906101000a90046001600160a01b03166001600160a01b03166394658d7e6040518163ffffffff1660e01b8152600401602060405180830381865afa158015610738573d5f803e3d5ffd5b505050506040513d601f19601f8201168201806040525081019061075c9190610d77565b5f5460405163145398bf60e21b8152336004820152602481018390526001600160a01b039091169063514e62fc90604401602060405180830381865afa1580156107a8573d5f803e3d5ffd5b505050506040513d601f19601f820116820180604052508101906107cc9190610d8e565b6107f25760405163418b5b9d60e11b815233600482015260248101829052604401610481565b6001600160a01b0383165f9081526001602081905260409091200154610100900460ff1661083e576040516306439c6b60e01b81526001600160a01b0384166004820152602401610481565b815f036108615760405163f10e7e1760e01b815260048101839052602401610481565b6001600160a01b0383165f81815260016020908152604091829020805490869055825181815291820186905292917f9fc9bbb169f3c12097f2fe507b4376465c90db6fb0a5f9bfc81342599201f5e09101610663565b5f8054906101000a90046001600160a01b03166001600160a01b03166394658d7e6040518163ffffffff1660e01b8152600401602060405180830381865afa158015610905573d5f803e3d5ffd5b505050506040513d601f19601f820116820180604052508101906109299190610d77565b5f5460405163145398bf60e21b8152336004820152602481018390526001600160a01b039091169063514e62fc90604401602060405180830381865afa158015610975573d5f803e3d5ffd5b505050506040513d601f19601f820116820180604052508101906109999190610d8e565b6109bf5760405163418b5b9d60e11b815233600482015260248101829052604401610481565b6001600160a01b0382165f9081526001602081905260409091200154610100900460ff16610a0b576040516306439c6b60e01b81526001600160a01b0383166004820152602401610481565b6001600160a01b0382165f908152600160208181526040808420909201805461ff00191690556003905290205460ff1615610a6957610a4982610b37565b6001600160a01b0382165f908152600360205260409020805460ff191690555b6040516001600160a01b038316907fd89d2ee68ab04dca0193f48a4aff55e20fa5ec0429a8a8c1c51b8dad6178a593905f90a25050565b6001600160a01b0382165f90815260016020818152604080842081516060810183528154815293015460ff8082169385019390935261010090049091161515908201819052610b0d576040516306439c6b60e01b81526001600160a01b0385166004820152602401610481565b8051670de0b6b3a764000090610b239085610dc8565b610b2d9190610ddf565b9150505b92915050565b6002545f5b81811015610c2b57826001600160a01b031660028281548110610b6157610b61610d23565b5f918252602090912001546001600160a01b031603610c23576002610b87600184610dfe565b81548110610b9757610b97610d23565b5f91825260209091200154600280546001600160a01b039092169183908110610bc257610bc2610d23565b905f5260205f20015f6101000a8154816001600160a01b0302191690836001600160a01b031602179055506002805480610bfe57610bfe610e11565b5f8281526020902081015f1990810180546001600160a01b0319169055019055505050565b600101610b3c565b505050565b602080825282518282018190525f9190848201906040850190845b81811015610c705783516001600160a01b031683529284019291840191600101610c4b565b50909695505050505050565b6001600160a01b0381168114610c90575f80fd5b50565b5f60208284031215610ca3575f80fd5b8135610cae81610c7c565b9392505050565b5f805f60608486031215610cc7575f80fd5b8335610cd281610c7c565b925060208401359150604084013560ff81168114610cee575f80fd5b809150509250925092565b5f8060408385031215610d0a575f80fd5b8235610d1581610c7c565b946020939093013593505050565b634e487b7160e01b5f52603260045260245ffd5b634e487b7160e01b5f52601160045260245ffd5b5f60018201610d5c57610d5c610d37565b5060010190565b634e487b7160e01b5f52604160045260245ffd5b5f60208284031215610d87575f80fd5b5051919050565b5f60208284031215610d9e575f80fd5b81518015158114610cae575f80fd5b5f60208284031215610dbd575f80fd5b8151610cae81610c7c565b8082028115828204841417610b3157610b31610d37565b5f82610df957634e487b7160e01b5f52601260045260245ffd5b500490565b81810381811115610b3157610b31610d37565b634e487b7160e01b5f52603160045260245ffdfea2646970667358221220821c676b0151c169d36362a2eedcc15e761610f2c7b150cd4970f91abac6666e64736f6c63430008190033","linkReferences":{}},"methodIdentifiers":{"addCollateral(address,uint256,uint8)":"7903f3f8","getCollateralInfo(address)":"33352210","getSupportedCollaterals()":"05db8a69","getValueInUnderlying(address,uint256)":"cb04200f","isSupportedAsset(address)":"9be918e6","registry()":"7b103999","removeCollateral(address)":"c99d3a06","roleManager()":"00435da5","updateConversionRate(address,uint256)":"a03b5c04"},"id":47}