{"abi":[{"type":"constructor","inputs":[{"name":"_roleManager","type":"address","internalType":"address"},{"name":"_registry","type":"address","internalType":"address"},{"name":"_sovaBTC","type":"address","internalType":"address"}],"stateMutability":"nonpayable"},{"type":"function","name":"addLiquidity","inputs":[{"name":"amount","type":"uint256","internalType":"uint256"}],"outputs":[],"stateMutability":"nonpayable"},{"type":"function","name":"collateralBalance","inputs":[{"name":"token","type":"address","internalType":"address"}],"outputs":[{"name":"","type":"uint256","internalType":"uint256"}],"stateMutability":"view"},{"type":"function","name":"collateralRegistry","inputs":[],"outputs":[{"name":"","type":"address","internalType":"contract IMultiCollateralRegistry"}],"stateMutability":"view"},{"type":"function","name":"emergencyWithdraw","inputs":[{"name":"token","type":"address","internalType":"address"},{"name":"amount","type":"uint256","internalType":"uint256"},{"name":"to","type":"address","internalType":"address"}],"outputs":[],"stateMutability":"nonpayable"},{"type":"function","name":"getHeldCollaterals","inputs":[],"outputs":[{"name":"","type":"address[]","internalType":"address[]"}],"stateMutability":"view"},{"type":"function","name":"rebalanceCollateral","inputs":[{"name":"fromToken","type":"address","internalType":"address"},{"name":"toToken","type":"address","internalType":"address"},{"name":"amount","type":"uint256","internalType":"uint256"}],"outputs":[],"stateMutability":"nonpayable"},{"type":"function","name":"registry","inputs":[],"outputs":[{"name":"","type":"address","internalType":"address"}],"stateMutability":"view"},{"type":"function","name":"removeCollateral","inputs":[{"name":"token","type":"address","internalType":"address"},{"name":"amount","type":"uint256","internalType":"uint256"},{"name":"to","type":"address","internalType":"address"}],"outputs":[],"stateMutability":"nonpayable"},{"type":"function","name":"roleManager","inputs":[],"outputs":[{"name":"","type":"address","internalType":"contract RoleManager"}],"stateMutability":"view"},{"type":"function","name":"setVault","inputs":[{"name":"_vault","type":"address","internalType":"address"}],"outputs":[],"stateMutability":"nonpayable"},{"type":"function","name":"sovaBTC","inputs":[],"outputs":[{"name":"","type":"address","internalType":"address"}],"stateMutability":"view"},{"type":"function","name":"totalAssets","inputs":[],"outputs":[{"name":"","type":"uint256","internalType":"uint256"}],"stateMutability":"view"},{"type":"function","name":"vault","inputs":[],"outputs":[{"name":"","type":"address","internalType":"address"}],"stateMutability":"view"},{"type":"function","name":"withdrawTo","inputs":[{"name":"asset","type":"address","internalType":"address"},{"name":"to","type":"address","internalType":"address"},{"name":"amount","type":"uint256","internalType":"uint256"}],"outputs":[{"name":"success","type":"bool","internalType":"bool"}],"stateMutability":"nonpayable"},{"type":"event","name":"CollateralRebalanced","inputs":[{"name":"fromToken","type":"address","indexed":true,"internalType":"address"},{"name":"toToken","type":"address","indexed":true,"internalType":"address"},{"name":"amount","type":"uint256","indexed":false,"internalType":"uint256"}],"anonymous":false},{"type":"event","name":"CollateralRemoved","inputs":[{"name":"token","type":"address","indexed":true,"internalType":"address"},{"name":"amount","type":"uint256","indexed":false,"internalType":"uint256"},{"name":"to","type":"address","indexed":true,"internalType":"address"}],"anonymous":false},{"type":"event","name":"EmergencyWithdrawal","inputs":[{"name":"token","type":"address","indexed":true,"internalType":"address"},{"name":"amount","type":"uint256","indexed":false,"internalType":"uint256"},{"name":"to","type":"address","indexed":true,"internalType":"address"}],"anonymous":false},{"type":"event","name":"LiquidityAdded","inputs":[{"name":"amount","type":"uint256","indexed":false,"internalType":"uint256"}],"anonymous":false},{"type":"event","name":"VaultSet","inputs":[{"name":"oldVault","type":"address","indexed":true,"internalType":"address"},{"name":"newVault","type":"address","indexed":true,"internalType":"address"}],"anonymous":false},{"type":"event","name":"WithdrawTo","inputs":[{"name":"asset","type":"address","indexed":true,"internalType":"address"},{"name":"to","type":"address","indexed":true,"internalType":"address"},{"name":"amount","type":"uint256","indexed":false,"internalType":"uint256"}],"anonymous":false},{"type":"error","name":"InsufficientBalance","inputs":[{"name":"requested","type":"uint256","internalType":"uint256"},{"name":"available","type":"uint256","internalType":"uint256"}]},{"type":"error","name":"InvalidAddress","inputs":[]},{"type":"error","name":"InvalidAmount","inputs":[{"name":"amount","type":"uint256","internalType":"uint256"}]},{"type":"error","name":"InvalidRoleManager","inputs":[]},{"type":"error","name":"Reentrancy","inputs":[]},{"type":"error","name":"TokenNotSupported","inputs":[{"name":"token","type":"address","internalType":"address"}]},{"type":"error","name":"TransferFailed","inputs":[]},{"type":"error","name":"Unauthorized","inputs":[{"name":"caller","type":"address","internalType":"address"}]},{"type":"error","name":"UnauthorizedRole","inputs":[{"name":"caller","type":"address","internalType":"address"},{"name":"roleRequired","type":"uint256","internalType":"uint256"}]},{"type":"error","name":"VaultNotSet","inputs":[]}],"bytecode":{"object":"0x60c060405234801561000f575f80fd5b50604051611c2c380380611c2c83398101604081905261002e916100ea565b826001600160a01b038116610056576040516309a53a6560e31b815260040160405180910390fd5b5f80546001600160a01b0319166001600160a01b0392831617905582166100905760405163e6c4247b60e01b815260040160405180910390fd5b6001600160a01b0381166100b75760405163e6c4247b60e01b815260040160405180910390fd5b6001600160a01b039182166080521660a0525061012a565b80516001600160a01b03811681146100e5575f80fd5b919050565b5f805f606084860312156100fc575f80fd5b610105846100cf565b9250610113602085016100cf565b9150610121604085016100cf565b90509250925092565b60805160a051611a9b6101915f395f818161016d0152818161025b015281816103870152818161095f015281816110ae0152818161112001526111cb01525f81816101fa015281816102db0152818161044b015281816113a201526114520152611a9b5ff3fe608060405234801561000f575f80fd5b50600436106100e4575f3560e01c80637b10399911610088578063c3b35a7e11610063578063c3b35a7e146101d2578063d330fadd146101f5578063eb0946bb1461021c578063fbfa77cf1461022f575f80fd5b80637b103999146101a2578063a1bf2840146101aa578063a815ebe9146101bd575f80fd5b806351c6590a116100c357806351c6590a14610142578063551512de14610155578063561f3f23146101685780636817031b1461018f575f80fd5b8062435da5146100e857806301e1d114146101175780633879b0c51461012d575b5f80fd5b5f546100fa906001600160a01b031681565b6040516001600160a01b0390911681526020015b60405180910390f35b61011f610242565b60405190815260200161010e565b61014061013b3660046117b3565b6104e1565b005b6101406101503660046117f2565b610802565b6101406101633660046117b3565b6109ca565b6100fa7f000000000000000000000000000000000000000000000000000000000000000081565b61014061019d366004611809565b610cc7565b6100fa610e43565b61011f6101b8366004611809565b610ebc565b6101c5610f2a565b60405161010e919061182b565b6101e56101e0366004611877565b610f8a565b604051901515815260200161010e565b6100fa7f000000000000000000000000000000000000000000000000000000000000000081565b61014061022a366004611877565b611256565b6001546100fa906001600160a01b031681565b6040516370a0823160e01b81523060048201525f9081907f00000000000000000000000000000000000000000000000000000000000000006001600160a01b0316906370a0823190602401602060405180830381865afa1580156102a8573d5f803e3d5ffd5b505050506040513d601f19601f820116820180604052508101906102cc91906118b5565b6102d690826118e0565b90505f7f00000000000000000000000000000000000000000000000000000000000000006001600160a01b03166305db8a696040518163ffffffff1660e01b81526004015f60405180830381865afa158015610334573d5f803e3d5ffd5b505050506040513d5f823e601f3d908101601f1916820160405261035b9190810190611917565b90505f5b81518110156104d9575f82828151811061037b5761037b6119d7565b602002602001015190507f00000000000000000000000000000000000000000000000000000000000000006001600160a01b0316816001600160a01b0316036103c457506104d1565b6040516370a0823160e01b81523060048201525f906001600160a01b038316906370a0823190602401602060405180830381865afa158015610408573d5f803e3d5ffd5b505050506040513d601f19601f8201168201806040525081019061042c91906118b5565b905080156104ce5760405163cb04200f60e01b81526001600160a01b037f0000000000000000000000000000000000000000000000000000000000000000169063cb04200f9061048290859085906004016119eb565b602060405180830381865afa15801561049d573d5f803e3d5ffd5b505050506040513d601f19601f820116820180604052508101906104c191906118b5565b6104cb90866118e0565b94505b50505b60010161035f565b509092915050565b5f8054906101000a90046001600160a01b03166001600160a01b03166394658d7e6040518163ffffffff1660e01b8152600401602060405180830381865afa15801561052f573d5f803e3d5ffd5b505050506040513d601f19601f8201168201806040525081019061055391906118b5565b5f5460405163145398bf60e21b81526001600160a01b039091169063514e62fc9061058490339085906004016119eb565b602060405180830381865afa15801561059f573d5f803e3d5ffd5b505050506040513d601f19601f820116820180604052508101906105c39190611a04565b6105ed57338160405163418b5b9d60e11b81526004016105e49291906119eb565b60405180910390fd5b3068929eee149b4bd21268540361060b5763ab143c065f526004601cfd5b3068929eee149b4bd21268556001600160a01b03821661063e5760405163e6c4247b60e01b815260040160405180910390fd5b825f0361066157604051633728b83d60e01b8152600481018490526024016105e4565b6040516370a0823160e01b81523060048201525f906001600160a01b038616906370a0823190602401602060405180830381865afa1580156106a5573d5f803e3d5ffd5b505050506040513d601f19601f820116820180604052508101906106c991906118b5565b9050838110156106f65760405163cf47918160e01b815260048101859052602481018290526044016105e4565b61070a6001600160a01b03861684866115e0565b6040516370a0823160e01b81523060048201526001600160a01b038616906370a0823190602401602060405180830381865afa15801561074c573d5f803e3d5ffd5b505050506040513d601f19601f8201168201806040525081019061077091906118b5565b15801561079457506001600160a01b0385165f9081526003602052604090205460ff165b156107a2576107a28561162a565b826001600160a01b0316856001600160a01b03167faf22a90605bc950ba80044d4eb359eef20dad2511ec5908af2730ba111a5aec7866040516107e791815260200190565b60405180910390a3503868929eee149b4bd212685550505050565b5f8054906101000a90046001600160a01b03166001600160a01b03166394658d7e6040518163ffffffff1660e01b8152600401602060405180830381865afa158015610850573d5f803e3d5ffd5b505050506040513d601f19601f8201168201806040525081019061087491906118b5565b5f5460405163145398bf60e21b81526001600160a01b039091169063514e62fc906108a590339085906004016119eb565b602060405180830381865afa1580156108c0573d5f803e3d5ffd5b505050506040513d601f19601f820116820180604052508101906108e49190611a04565b61090557338160405163418b5b9d60e11b81526004016105e49291906119eb565b3068929eee149b4bd2126854036109235763ab143c065f526004601cfd5b3068929eee149b4bd2126855815f0361095257604051633728b83d60e01b8152600481018390526024016105e4565b6109876001600160a01b037f000000000000000000000000000000000000000000000000000000000000000016333085611743565b6040518281527ffdb748c915e4e67b4bb23287bf4295a4595ce48b50343214369f72ccfb974cfa9060200160405180910390a13868929eee149b4bd21268555050565b5f8054906101000a90046001600160a01b03166001600160a01b03166394658d7e6040518163ffffffff1660e01b8152600401602060405180830381865afa158015610a18573d5f803e3d5ffd5b505050506040513d601f19601f82011682018060405250810190610a3c91906118b5565b5f5460405163145398bf60e21b81526001600160a01b039091169063514e62fc90610a6d90339085906004016119eb565b602060405180830381865afa158015610a88573d5f803e3d5ffd5b505050506040513d601f19601f82011682018060405250810190610aac9190611a04565b610acd57338160405163418b5b9d60e11b81526004016105e49291906119eb565b3068929eee149b4bd212685403610aeb5763ab143c065f526004601cfd5b3068929eee149b4bd21268556001600160a01b038216610b1e5760405163e6c4247b60e01b815260040160405180910390fd5b825f03610b4157604051633728b83d60e01b8152600481018490526024016105e4565b6040516370a0823160e01b81523060048201525f906001600160a01b038616906370a0823190602401602060405180830381865afa158015610b85573d5f803e3d5ffd5b505050506040513d601f19601f82011682018060405250810190610ba991906118b5565b905083811015610bd65760405163cf47918160e01b815260048101859052602481018290526044016105e4565b610bea6001600160a01b03861684866115e0565b6040516370a0823160e01b81523060048201526001600160a01b038616906370a0823190602401602060405180830381865afa158015610c2c573d5f803e3d5ffd5b505050506040513d601f19601f82011682018060405250810190610c5091906118b5565b158015610c7457506001600160a01b0385165f9081526003602052604090205460ff165b15610c8257610c828561162a565b826001600160a01b0316856001600160a01b03167f3ab9db27a4cdd8c603a752b62d5fbd93b4b3509fe2596708e9688e42bbac3576866040516107e791815260200190565b5f8054906101000a90046001600160a01b03166001600160a01b03166394658d7e6040518163ffffffff1660e01b8152600401602060405180830381865afa158015610d15573d5f803e3d5ffd5b505050506040513d601f19601f82011682018060405250810190610d3991906118b5565b5f5460405163145398bf60e21b81526001600160a01b039091169063514e62fc90610d6a90339085906004016119eb565b602060405180830381865afa158015610d85573d5f803e3d5ffd5b505050506040513d601f19601f82011682018060405250810190610da99190611a04565b610dca57338160405163418b5b9d60e11b81526004016105e49291906119eb565b6001600160a01b038216610df15760405163e6c4247b60e01b815260040160405180910390fd5b600180546001600160a01b038481166001600160a01b0319831681179093556040519116919082907f8800deb8c31293b539eaf5391fcc88280dc58f015c043d65dd5b72a0979a1dd1905f90a3505050565b5f805f9054906101000a90046001600160a01b03166001600160a01b0316637b1039996040518163ffffffff1660e01b8152600401602060405180830381865afa158015610e93573d5f803e3d5ffd5b505050506040513d601f19601f82011682018060405250810190610eb79190611a23565b905090565b6040516370a0823160e01b81523060048201525f906001600160a01b038316906370a0823190602401602060405180830381865afa158015610f00573d5f803e3d5ffd5b505050506040513d601f19601f82011682018060405250810190610f2491906118b5565b92915050565b60606002805480602002602001604051908101604052809291908181526020018280548015610f8057602002820191905f5260205f20905b81546001600160a01b03168152600190910190602001808311610f62575b5050505050905090565b6001545f906001600160a01b031633146110385760015460408051634bf60cdf60e11b815290515f926001600160a01b0316916397ec19be9160048083019260209291908290030181865afa158015610fe5573d5f803e3d5ffd5b505050506040513d601f19601f820116820180604052508101906110099190611a23565b9050336001600160a01b038216146110365760405163472511eb60e11b81523360048201526024016105e4565b505b3068929eee149b4bd2126854036110565763ab143c065f526004601cfd5b3068929eee149b4bd21268556001600160a01b0383166110895760405163e6c4247b60e01b815260040160405180910390fd5b815f036110ac57604051633728b83d60e01b8152600481018390526024016105e4565b7f00000000000000000000000000000000000000000000000000000000000000006001600160a01b0316846001600160a01b031614611109576040516306439c6b60e01b81526001600160a01b03851660048201526024016105e4565b6040516370a0823160e01b81523060048201525f907f00000000000000000000000000000000000000000000000000000000000000006001600160a01b0316906370a0823190602401602060405180830381865afa15801561116d573d5f803e3d5ffd5b505050506040513d601f19601f8201168201806040525081019061119191906118b5565b9050828110156111be5760405163cf47918160e01b815260048101849052602481018290526044016105e4565b6111f26001600160a01b037f00000000000000000000000000000000000000000000000000000000000000001685856115e0565b836001600160a01b0316856001600160a01b03167f67b714876402c93362735688659e2283b4a37fb21bab24bc759ca759ae851fd88560405161123791815260200190565b60405180910390a350503868929eee149b4bd212685550600192915050565b5f8054906101000a90046001600160a01b03166001600160a01b03166394658d7e6040518163ffffffff1660e01b8152600401602060405180830381865afa1580156112a4573d5f803e3d5ffd5b505050506040513d601f19601f820116820180604052508101906112c891906118b5565b5f5460405163145398bf60e21b81526001600160a01b039091169063514e62fc906112f990339085906004016119eb565b602060405180830381865afa158015611314573d5f803e3d5ffd5b505050506040513d601f19601f820116820180604052508101906113389190611a04565b61135957338160405163418b5b9d60e11b81526004016105e49291906119eb565b3068929eee149b4bd2126854036113775763ab143c065f526004601cfd5b3068929eee149b4bd2126855604051634df48c7360e11b81526001600160a01b0385811660048301527f00000000000000000000000000000000000000000000000000000000000000001690639be918e690602401602060405180830381865afa1580156113e7573d5f803e3d5ffd5b505050506040513d601f19601f8201168201806040525081019061140b9190611a04565b611433576040516306439c6b60e01b81526001600160a01b03851660048201526024016105e4565b604051634df48c7360e11b81526001600160a01b0384811660048301527f00000000000000000000000000000000000000000000000000000000000000001690639be918e690602401602060405180830381865afa158015611497573d5f803e3d5ffd5b505050506040513d601f19601f820116820180604052508101906114bb9190611a04565b6114e3576040516306439c6b60e01b81526001600160a01b03841660048201526024016105e4565b815f0361150657604051633728b83d60e01b8152600481018390526024016105e4565b6040516370a0823160e01b81523060048201525f906001600160a01b038616906370a0823190602401602060405180830381865afa15801561154a573d5f803e3d5ffd5b505050506040513d601f19601f8201168201806040525081019061156e91906118b5565b90508281101561159b5760405163cf47918160e01b815260048101849052602481018290526044016105e4565b836001600160a01b0316856001600160a01b03167f2f6dac0a04be7af5a5cbd9f9f54f6e3478cf1238a73a66d1d2b97a852575b6af856040516107e791815260200190565b816014528060345263a9059cbb60601b5f5260205f604460105f875af18060015f51141661162057803d853b151710611620576390b8ec185f526004601cfd5b505f603452505050565b6002545f5b8181101561173e57826001600160a01b031660028281548110611654576116546119d7565b5f918252602090912001546001600160a01b03160361173657600261167a600184611a3e565b8154811061168a5761168a6119d7565b5f91825260209091200154600280546001600160a01b0390921691839081106116b5576116b56119d7565b905f5260205f20015f6101000a8154816001600160a01b0302191690836001600160a01b0316021790555060028054806116f1576116f1611a51565b5f828152602080822083015f1990810180546001600160a01b03191690559092019092556001600160a01b03851682526003905260409020805460ff19169055505050565b60010161162f565b505050565b60405181606052826040528360601b602c526323b872dd60601b600c5260205f6064601c5f895af18060015f51141661178e57803d873b15171061178e57637939f4245f526004601cfd5b505f60605260405250505050565b6001600160a01b03811681146117b0575f80fd5b50565b5f805f606084860312156117c5575f80fd5b83356117d08161179c565b92506020840135915060408401356117e78161179c565b809150509250925092565b5f60208284031215611802575f80fd5b5035919050565b5f60208284031215611819575f80fd5b81356118248161179c565b9392505050565b602080825282518282018190525f9190848201906040850190845b8181101561186b5783516001600160a01b031683529284019291840191600101611846565b50909695505050505050565b5f805f60608486031215611889575f80fd5b83356118948161179c565b925060208401356118a48161179c565b929592945050506040919091013590565b5f602082840312156118c5575f80fd5b5051919050565b634e487b7160e01b5f52601160045260245ffd5b80820180821115610f2457610f246118cc565b634e487b7160e01b5f52604160045260245ffd5b80516119128161179c565b919050565b5f6020808385031215611928575f80fd5b825167ffffffffffffffff8082111561193f575f80fd5b818501915085601f830112611952575f80fd5b815181811115611964576119646118f3565b8060051b604051601f19603f83011681018181108582111715611989576119896118f3565b6040529182528482019250838101850191888311156119a6575f80fd5b938501935b828510156119cb576119bc85611907565b845293850193928501926119ab565b98975050505050505050565b634e487b7160e01b5f52603260045260245ffd5b6001600160a01b03929092168252602082015260400190565b5f60208284031215611a14575f80fd5b81518015158114611824575f80fd5b5f60208284031215611a33575f80fd5b81516118248161179c565b81810381811115610f2457610f246118cc565b634e487b7160e01b5f52603160045260245ffdfea2646970667358221220a24fa097491c412e526d135dd69880d95b7588bec791aa71fe3b7009a3f5227664736f6c63430008190033","linkReferences":{}},"methodIdentifiers":{"addLiquidity(uint256)":"51c6590a","collateralBalance(address)":"a1bf2840","collateralRegistry()":"d330fadd","emergencyWithdraw(address,uint256,address)":"551512de","getHeldCollaterals()":"a815ebe9","rebalanceCollateral(address,address,uint256)":"eb0946bb","registry()":"7b103999","removeCollateral(address,uint256,address)":"3879b0c5","roleManager()":"00435da5","setVault(address)":"6817031b","sovaBTC()":"561f3f23","totalAssets()":"01e1d114","vault()":"fbfa77cf","withdrawTo(address,address,uint256)":"c3b35a7e"},"id":51}